:100000000E144D4F443942415349430010DE06BDA2
:1000100007E3201310CE21CC10DF06BD07E3CC028E
:1000200049DD00DD02DD04BD013E8E0082BD0137E9
:1000300010DE060F13BD013E9E009F088E00009F3C
:100040000C0D132605863ABD07A8BD018EBD02E83A
:10005000240E292BBD0259810427E1BD020B20D0BB
:1000600034109E029C04351027037E015EC30000FD
:10007000270D340683270F350622048D1020BD7E00
:10008000015554494E592056312E3337043406BD9C
:1000900002599F0EA6609E089C02270510A300240B
:1000A000029E00BD03C29F0825229F0A3002A6803F
:1000B000810426FA9C02270EA6809F109E0AA78024
:1000C0009F0A9E1020EE9E0A9F029F049E0EC6FF6E
:1000D0005CA680810426F95D2603326239301FCB8D
:1000E00004301F5AA600812027F78604A7014F9EDF
:1000F000029F10D302DD02DD04BD036024079F02CE
:100100009F047E014D9E029F0A9E109C08270AA60E
:10011000829F109E0AA78220EE35069E08ED819FE1
:10012000109E0EA6809F0E9E10A7809F1081042611
:10013000F039BD07A83001A600810426F5398E01EB
:10014000468DF40F12390D0A7F000000048D2453F0
:100150004F525259048D1C57484154203F048D136F
:10016000484F57203F048D0B425245414B04535496
:100170004F50048DC98607BD07A8DC0CBD065C8600
:1001800020BD07A835108DAF8DB40E308DB08E0216
:1001900000BD079E81202514817F27F58C0248260B
:1001A0000486072002A780BD07A820E58108272430
:1001B000811827D8810A2731810D26D50D132705EF
:1001C000BD07A820073410BD013E35108604A700E6
:1001D0008E0200398C020027B8301F8608BD07A8A0
:1001E0008620BD07A8860820BE1A01061320B83055
:1001F000018D66810426F8BD052F960C9A0D2714F3
:100200009C0226037E015EEC81DD0CBD079A8D0801
:1002100025033406397E05408D3F9F088E0735A69D
:1002200080810426059E081A01399F109E089F0EA2
:100230009E0EA100261530019F0E9E10A6809F10D5
:10024000810426ECEC009E0E1CFE399E10A68081D7
:100250000426FA300220C83001A600812027F83990
:100260008D1A2422814125118146220D80371CFEE2
:100270003981412504815A230D1A0139813025F92C
:10028000813922F580301CFE398DCE8DE425121F78
:1002900089A6018DDC24E23001C041584FD3061CF1
:1002A000FE39BD050E3406BD0259812C270981296E
:1002B0001A0127157E01553001BD04413402BD02EB
:1002C000598129350226ED1CFE30019F08ADF19EB3
:1002D000081CFE39BD0259812D260D30018D0925DE
:1002E00006405082001CFC39BD0259BD027C242FFF
:1002F00081241A01266030016FE26FE2A600BD0280
:1003000060254F300134103402EC6385F0264A58E2
:1003100049584958495849EBE0ED62351020DD3025
:100320000134026FE2A600BD027C252630013410A4
:100330003402EC63584929215849291DE3632919DE
:1003400058492915EB608900290FED63326135109A
:1003500020D335061CFE1CFD39AE6132651A033907
:1003600010DF0ADC0A830030930439BD04FB340635
:100370003410E672351032624F39BD04FB3406BDCD
:100380000259813D27037E01553001BD0441BD0561
:100390002F3410E772351032627E01FABD02599F88
:1003A000088E03ACBD021F25023406395553520492
:1003B00002A25045454B04036B4D454D04036004B8
:1003C0009E009C0226031A033910A30026031CFC7E
:1003D0003924051A011CFD3934028604300130012C
:1003E000A10026FA3502300120D88D5534065FBDB4
:1003F0000259813D2723813C261030015CBD025902
:10040000813E26113001CB042013813E265F30014E
:10041000CB04BD0259813D26043001CB0234048D4A
:10042000203410A3631FA8441F8948483404ABE05C
:10043000840626014C5FA4622701534F35103263B6
:10044000396FE26FE2BD0259812D2717812B2602F9
:1004500030018D1CE360ED60BD0259812B27F181D5
:100460002D260A30018D094050820020E7350639DB
:10047000BD04E33406BD0259812A2748812F270392
:1004800035063930018D5C341030623406A800BD69
:1004900005223060BD05223402861134024F5FA36D
:1004A000622406E3621CFE20021A0169676966592C
:1004B000496A6026EAA66132644D2A0430628D667C
:1004C000351020B130018D1B3404E6623DA661E792
:1004D00061E6603DA662E76235043DAB60AB61ED6D
:1004E000602092BD0289250934101F01EC003510EF
:1004F00039BD02E824FABD039C24F58D113402BDF8
:1005000002598129350226033001397E0155BD0388
:100510006024037E014DBD0259812826EE30017E04
:1005200004416D002A086000600124026A00393429
:1005300002BD0259810427037E015530013502397D
:10054000BD028924037E01553406BD0259813D2731
:10055000037E01553001BD04418DD49F083510ED57
:10056000009E087E01FABD03EA5D27037E020B7E32
:1005700001F1BD04418DB8BD03C0250F7E0207BD4A
:1005800004418DAB9F08BD03C024037E015EBD0303
:100590006024037E014DDC083406DC0C3406BD0209
:1005A000073506DD0C35107E01FABD0259812C2776
:1005B00036813B273D810427258122260630018D87
:1005C000422009BD044134108D473510BD025981C8
:1005D0002C2714813B271B810427037E01553410EF
:1005E000BD013E35102014C6078620BD07A8D512D0
:1005F00026F73001BD0259810426B230017E01FA8E
:10060000BD07A8A680810426037E0155812226F01D
:10061000394D2A0D405082003402862DBD07A83581
:10062000028E0650300210A30024058C065A26F4D0
:100630000F1010A3002506A3000C1020F53402862D
:10064000309B10BD07A835028C065A2704300220C3
:10065000DF39271003E80064000A00018E065420E9
:10066000CFBD0289253C34069F08863FBD07A8BD43
:10067000018EBD0259810427F1BD02D4240B8E06E0
:10068000B6BD0137BD013E20E19F0E3510ED009E45
:1006900008BD0259812C27037E01F73001BD028974
:1006A00024037E0155340634109E0EBD0259812C60
:1006B00026C0300120BC52452D454E544552049E63
:1006C0000686346F804A26FB9E007E0200BD02E84B
:1006D00024084F5FDD08867F2017DD08BD025981A1
:1006E0002C27049608200A3001BD02E824037E016D
:1006F00055BD052F3406DC089F08BD03C09C0227AA
:1007000028350610A30025283406EC813410BD06D8
:100710005C35108620BD07A8BD013730013410BDFF
:10072000013E3510BD079A20D432628603BD07A86A
:100730009E087E01FA4C455404054049460405666E
:10074000474F544F040572474F53554204057F529B
:10075000455455524E04052F504F4B4504037A50D3
:1007600052494E540405AA494E505554040661524C
:10077000454D0401F153544F500407E4454E4404E1
:1007800007E452554E0406BF4C4953540406CD4E5F
:10079000455704001E3F0405AA048D2A27098D0D24
:1007A000810326037E0166390C127E07B78D172759
:1007B000FCB683FF847F393402B683FE850227F9B5
:1007C0003502B783FF393402B683FE85202705B68C
:1007D00083FF20F485013502398603B783FE861531
:0407E000B783FE39A4
:00000001FF