:100000007EE0127EE2B07EE27C7EE1E07EE1D97E9F
:10001000E29F10CE80001A508615B783FE86001F1F
:100020008BBDE29F4B494C4F204D6F6E69746F72D0
:1000300020763100BDE28BBDE295BDE2B0813A276A
:100040002E810D27F5810A27F184DF814D102700CD
:10005000508144102700898147102700BD81551029
:100060002700D5BDE29F576861743F007EE034BD34
:10007000E22C9703BDE23B9F04BDE22C8100261FCA
:10008000BDE22CA7800A0326F7862ABDE27CBDE2EA
:10009000B0810D27A2810A27F5813A27D220EF20CF
:1000A00093BDE1FB9E00BDE28BBDE1D9BDE29F2087
:1000B0005B00A6809701BDE1E0BDE29F5D2000BD31
:1000C000E20981A01027FF6C8188270B818D26D63D
:1000D0009601A71F7EE0A69601A71F301E7EE0A610
:1000E000BDE1FB9E00BDE28BBDE1D9BDE29F3A20A0
:1000F00000C610A680BDE1E08620BDE27C5A26F352
:10010000BDE28BBDE2B0810D27DE81201027FF27E5
:10011000810826EF3088E07EE0E8BDE1FB6E9F00BD
:1001200000A603814D2610A604814F260AA605814C
:10013000442604A606813939BDE29F496E73746175
:100140006C6C6564206D6F64756C65733A0D0A00A4
:10015000CCE2BB5F4C34063510C641BDE1212621FF
:10016000865BBDE27C1F98BDE27C5C865DBDE27C67
:100170008620BDE27C34103007BDE271BDE28B35D4
:10018000103089010026D4BDE29F53656C6563740D
:10019000206D6F64756C6520746F2072756E3A20E7
:1001A00000BDE2B081201027FE8D810D1027FE8753
:1001B0008041102DFE813402CCE2BB5F4C34063509
:1001C000103504BDE1212605C100270A5A308901F6
:1001D0000026F07EE1A13410391F10BDE1E01F9828
:1001E000340244444444BDE1ED3502840F810A24C5
:1001F000058B307EE27C8B377EE27CBDE29F4164E2
:1002000064723A00CC0000DD00BDE24A2A01391FC9
:1002100089BDE1ED4F080109000801090008010945
:100220000008010900D300DD007EE209BDE24A4872
:100230004848489702BDE24A9B0239BDE22C34028D
:10024000BDE22C1F8935021F0139BDE2B081302487
:10025000038A8039813A2203803039814125F28135
:10026000462203803739816125E7816622E3805782
:1002700039A680260139BDE27C7EE2713406F68320
:10028000FEC40227F9B783FF350639860DBDE27C2F
:10029000860A7EE27C863EBDE27C86207EE27C345D
:1002A00012AE63A6802604AF633592BDE27C20F3D4
:0B02B000B683FE840127F9B683FF39F6
:100300007EE30F4D4F4439546573744D6F6400BDE7
:10031000E00F54657374206D6F64756C650D0A0091
:030320007EE0007C
:100400007EE4154D4F443942415349430010DE0C00
:10041000BDEBE1201310CE21CC10DF0CBDEBE1CC05
:100420000249DD06DD08DD0ABDE53F8EE483BDE55A
:100430003810DE0C0F19BDE53F9E069F0E8E0000A2
:100440009F120D192605863ABDEBA6BDE590BDE6C7
:10045000EA240E292BBDE65B810427E1BDE60D20D1
:10046000D034109E089C0A351027037EE55FC30038
:1004700000270D340683270F350622048D1020BD7A
:100480007EE55654494E592056312E3337043406F2
:10049000BDE65B9F14A6609E0E9C08270510A30076
:1004A00024029E06BDE7C49F0E25229F103002A69F
:1004B00080810426FA9C08270EA6809F169E10A70E
:1004C000809F109E1620EE9E109F089F0A9E14C6C5
:1004D000FF5CA680810426F95D2603326239301F55
:1004E000CB04301F5AA600812027F78604A7014FAE
:1004F0009E089F16D308DD08DD0ABDE76224079F2A
:10050000089F0A7EE54E9E089F109E169C0E270AA5
:10051000A6829F169E10A78220EE35069E0EED81C4
:100520009F169E14A6809F149E16A7809F16810476
:1005300026F039BDEBA63001A600810426F5398EE0
:10054000E5478DF40F18390D0A7F000000048D2453
:10055000534F525259048D1C57484154203F048D2B
:1005600013484F57203F048D0B425245414B0453D3
:10057000544F50048DC98607BDEBA6DC12BDEA5E60
:100580008620BDEBA635108DAF8DB47EE4318DAFE6
:100590008E0200BDEB9C81202514817F27F58C0203
:1005A00048260486072002A780BDEBA620E5810827
:1005B0002724811827D8810A2731810D26D50D19C6
:1005C0002705BDEBA620073410BDE53F3510860496
:1005D000A7008E0200398C020027B8301F8608BDA4
:1005E000EBA68620BDEBA6860820BE1A01061920C0
:1005F000B830018D66810426F8BDE93196129A1350
:1006000027149C0826037EE55FEC81DD12BDEB9884
:100610008D0825033406397EE9428D3F9F0E8EEB0F
:1006200037A680810426059E0E1A01399F169E0E5C
:100630009F149E14A100261530019F149E16A680BB
:100640009F16810426ECEC009E141CFE399E16A613
:1006500080810426FA300220C83001A600812027BC
:10066000F8398D1A2422814125118146220D8037C7
:100670001CFE3981412504815A230D1A013981302C
:1006800025F9813922F580301CFE398DCE8DE42587
:10069000121F89A6018DDC24E23001C041584FD3DE
:1006A0000C1CFE39BDE9103406BDE65B812C270920
:1006B00081291A0127157EE5563001BDE843340231
:1006C000BDE65B8129350226ED1CFE30019F0EAD93
:1006D000F19E0E1CFE39BDE65B812D260D30018D8D
:1006E000092506405082001CFC39BDE65BBDE67E54
:1006F000242F81241A01266030016FE26FE2A600E8
:10070000BDE662254F300134103402EC6385F026DB
:100710004A5849584958495849EBE0ED623510208C
:10072000DD300134026FE2A600BDE67E25263001F1
:1007300034103402EC63584929215849291DE363D8
:10074000291958492915EB608900290FED63326199
:10075000351020D335061CFE1CFD39AE6132651AFA
:10076000033910DF10DC10830030930A39BDE8FD37
:1007700034063410E672351032624F39BDE8FD346C
:1007800006BDE65B813D27037EE5563001BDE843AB
:10079000BDE9313410E772351032627EE5FCBDE60A
:1007A0005B9F0E8EE7AEBDE6212502340639555318
:1007B0005204E6A45045454B04E76D4D454D04E712
:1007C00062049E069C0826031A033910A300260320
:1007D0001CFC3924051A011CFD3934028604300141
:1007E0003001A10026FA3502300120D88D5534069B
:1007F0005FBDE65B813D2723813C261030015CBD57
:10080000E65B813E26113001CB042013813E265F3A
:100810003001CB04BDE65B813D26043001CB0234C0
:10082000048D203410A3631FA8441F894848340452
:10083000ABE0840626014C5FA4622701534F3510BC
:100840003263396FE26FE2BDE65B812D2717812BA2
:10085000260230018D1CE360ED60BDE65B812B2735
:10086000F1812D260A30018D094050820020E735A4
:100870000639BDE8E53406BDE65B812A2748812FAD
:10088000270335063930018D5C341030623406A8F8
:1008900000BDE9243060BDE9243402861134024FE2
:1008A0005FA3622406E3621CFE20021A01696769E5
:1008B0006659496A6026EAA66132644D2A043062AC
:1008C0008D66351020B130018D1B3404E6623DA6E3
:1008D00061E761E6603DA662E76235043DAB60AB6F
:1008E00061ED602092BDE68B250934101F01EC00FC
:1008F000351039BDE6EA24FABDE79E24F58D1134A2
:1009000002BDE65B8129350226033001397EE556BA
:10091000BDE76224037EE54EBDE65B812826EE300E
:10092000017EE8436D002A086000600124026A002D
:10093000393402BDE65B810427037EE5563001357C
:100940000239BDE68B24037EE5563406BDE65B81A5
:100950003D27037EE5563001BDE8438DD49F0E351B
:1009600010ED009E0E7EE5FCBDE7EC5D27037EE604
:100970000D7EE5F3BDE8438DB8BDE7C2250F7EE6E9
:1009800009BDE8438DAB9F0EBDE7C224037EE55F42
:10099000BDE76224037EE54EDC0E3406DC1234062D
:1009A000BDE6093506DD1235107EE5FCBDE65B814E
:1009B0002C2736813B273D810427258122260630BE
:1009C000018D422009BDE84334108D473510BDE646
:1009D0005B812C2714813B271B810427037EE5566E
:1009E0003410BDE53F35102014C6078620BDEBA6A8
:1009F000D51826F73001BDE65B810426B230017EB2
:100A0000E5FCBDEBA6A680810426037EE556812287
:100A100026F0394D2A0D405082003402862DBDEB60
:100A2000A635028EEA52300210A30024058CEA5C3F
:100A300026F40F1610A3002506A3000C1620F5348B
:100A40000286309B16BDEBA635028CEA5C2704308B
:100A50000220DF39271003E80064000A00018EEA53
:100A60005620CFBDE68B253C34069F0E863FBDEB5E
:100A7000A6BDE590BDE65B810427F1BDE6D6240B5B
:100A80008EEAB8BDE538BDE53F20E19F143510ED95
:100A9000009E0EBDE65B812C27037EE5F93001BD8B
:100AA000E68B24037EE556340634109E14BDE65BC7
:100AB000812C26C0300120BC52452D454E54455254
:100AC000049E0C86346F804A26FB9E067EE602BD9D
:100AD000E6EA24084F5FDD0E867F2017DD0EBDE6B7
:100AE0005B812C2704960E200A3001BDE6EA240320
:100AF0007EE556BDE9313406DC0E9F0EBDE7C29C93
:100B0000082728350610A30025283406EC81341068
:100B1000BDEA5E35108620BDEBA6BDE53830013458
:100B200010BDE53F3510BDEB9820D432628603BD81
:100B3000EBA69E0E7EE5FC4C455404E94249460472
:100B4000E968474F544F04E974474F53554204E94D
:100B50008152455455524E04E931504F4B4504E7FC
:100B60007C5052494E5404E9AC494E50555404EA65
:0E0B70006352454D04E5F353544F5004EBE23D
:060B7C00454E4404EBE2CB
:100B800052554E04EAC14C49535404EACF4E4557DE
:100B900004E41F3F04E9AC048D2A27098D0D81036D
:100BA00026037EE567390C187EEBB58D1727FCB65A
:100BB00083FF847F393402B683FE850227F935022C
:100BC000B783FF393402B683FE85202705B683FF3D
:100BD00020F485013502398603B783FE8615B78375
:020BE000FE39DC
:101FF000E012E012E012E012E012E012E012E01251
:00000001FF