:100000007EE0127EE3A67EE3727EE2D67EE2CF7EC3
:10001000E39510CE80001A508615B783FE86001F28
:100020008BBDE3954B494C4F204D6F6E69746F72D9
:1000300020763200BDE381BDE38BBDE3A6813A2784
:100040003A810D27F5810A27F184DF814D102700C1
:100050005C8144102700958147102700C981551005
:100060002700E1815710270198815810270176BD9C
:10007000E395576861743F007EE034BDE322970347
:10008000BDE3319F04BDE3228100261FBDE322A70B
:10009000800A0326F7862ABDE372BDE3A6810D27F9
:1000A00096810A27F5813A27D220EF2087BDE2F119
:1000B0009E00BDE381BDE2CFBDE395205B00A6803D
:1000C0009701BDE2D6BDE3955D2000BDE2FF81A0B2
:1000D0001027FF608188270B818D26D69601A71FE8
:1000E0007EE0B29601A71F301E7EE0B2BDE2F19E17
:1000F00000BDE381BDE2CFBDE3953A2000C610A666
:1001000080BDE2D68620BDE3725A26F3BDE381BDF1
:10011000E3A6810D27DE81201027FF1B810826EF33
:100120003088E07EE0F4BDE2F16E9F0000A603811E
:100130004D2610A604814F260AA60581442604A652
:1001400006813939BDE395496E7374616C6C6564E1
:10015000206D6F64756C65733A0D0A00CCE3B15F76
:100160004C34063510C641BDE12D2621865BBDE32A
:10017000721F98BDE3725C865DBDE3728620BDE3AD
:100180007234103007BDE367BDE38135103089015B
:100190000026D4BDE39553656C656374206D6F6470
:1001A000756C6520746F2072756E3A2000BDE3A6F1
:1001B00081201027FE81810D1027FE7B8041102DAC
:1001C000FE753402CCE3B15F4C340635103504BD06
:1001D000E12D2605C100270A5A3089010026F07E4C
:1001E000E1AD3410398EE2649F08BDE21CBDE39599
:1001F0003A303030303030303146460D0A007EE043
:10020000378EE2959F08BDE21CBDE395533930332C
:100210003030303046430D0A007EE037BDE395466E
:10022000726F6D3A00BDE2FA9E009F04BDE3950D2A
:100230000A546F3A00BDE2FA9E009F06BDE3819624
:10024000049106260A960790052718811025028634
:10025000109703AD9F00089604910623E29605913E
:100260000723DC39863ABDE3729603BDE2D69E04CD
:10027000BDE2CF8600BDE2D6D603DB04DB05EB840E
:10028000A680BDE2D60A0326F59F041F9840BDE272
:10029000D6BDE381398653BDE3728631BDE37296E4
:1002A000038B03BDE2D69E04BDE2CF8600BDE2D63D
:1002B000D603DB04DB05CB03EB84A680BDE2D60AC4
:1002C0000326F59F041F9840BDE2D6BDE381391F88
:1002D00010BDE2D61F98340244444444BDE2E335E5
:1002E00002840F810A24058B307EE3728B377EE314
:1002F00072BDE395416464723A00CC0000DD00BD3C
:10030000E3402A01391F89BDE2E34F0801090008D3
:100310000109000801090008010900D300DD007E81
:10032000E2FFBDE340484848489702BDE3409B02D6
:1003300039BDE3223402BDE3221F8935021F013992
:10034000BDE3A6813024038A8039813A22038030BC
:1003500039814125F281462203803739816125E7C1
:10036000816622E3805739A680260139BDE3727E7B
:10037000E3673406F683FEC40227F9B783FF350628
:1003800039860DBDE372860A7EE372863EBDE37256
:1003900086207EE3723412AE63A6802604AF6335F6
:1003A00092BDE37220F3B683FE840127F9B683FF82
:0103B0003913
:100400007EE40F4D4F4439546573744D6F6400BDE5
:10041000E00F54657374206D6F64756C650D0A0090
:030420007EE0007B
:100500007EE5154D4F443942415349430010DE10FA
:10051000BDECE5201310CE21CC10DF10BDECE5CCF6
:100520000249DD0ADD0CDD0EBDE63F8EE583BDE64A
:100530003810DE100F1DBDE63F9E0A9F128E000090
:100540009F160D1D2605863ABDECAABDE690BDE7B7
:10055000EA240E292BBDE75B810427E1BDE70D20CE
:10056000D034109E0C9C0E351027037EE65FC3002E
:1005700000270D340683270F350622048D1020BD79
:100580007EE65654494E592056312E3337043406F0
:10059000BDE75B9F18A6609E129C0C270510A30068
:1005A00024029E0ABDE8C49F1225229F143002A691
:1005B00080810426FA9C0C270EA6809F1A9E14A701
:1005C000809F149E1A20EE9E149F0C9F0E9E18C6AC
:1005D000FF5CA680810426F95D2603326239301F54
:1005E000CB04301F5AA600812027F78604A7014FAD
:1005F0009E0C9F1AD30CDD0CDD0EBDE86224079F14
:100600000C9F0E7EE64E9E0C9F149E1A9C12270A8B
:10061000A6829F1A9E14A78220EE35069E12ED81B7
:100620009F1A9E18A6809F189E1AA7809F1A810461
:1006300026F039BDECAA3001A600810426F5398EDA
:10064000E6478DF40F1C390D0A7F000000048D244D
:10065000534F525259048D1C57484154203F048D2A
:1006600013484F57203F048D0B425245414B0453D2
:10067000544F50048DC98607BDECAADC16BDEB5E55
:100680008620BDECAA35108DAF8DB47EE5318DAFDF
:100690008E0200BDECA081202514817F27F58C02FD
:1006A00048260486072002A780BDECAA20E5810821
:1006B0002724811827D8810A2731810D26D50D1DC1
:1006C0002705BDECAA20073410BDE63F351086048F
:1006D000A7008E0200398C020027B8301F8608BDA3
:1006E000ECAA8620BDECAA860820BE1A01061D20B1
:1006F000B830018D66810426F8BDEA3196169A1746
:1007000027149C0C26037EE65FEC81DD16BDEC9C75
:100710008D0825033406397EEA428D3F9F128EEC08
:1007200037A680810426059E121A01399F1A9E124F
:100730009F189E18A100261530019F189E1AA680AA
:100740009F1A810426ECEC009E181CFE399E1AA606
:1007500080810426FA300220C83001A600812027BB
:10076000F8398D1A2422814125118146220D8037C6
:100770001CFE3981412504815A230D1A013981302B
:1007800025F9813922F580301CFE398DCE8DE42586
:10079000121F89A6018DDC24E23001C041584FD3DD
:1007A000101CFE39BDEA103406BDE75B812C270919
:1007B00081291A0127157EE6563001BDE94334022E
:1007C000BDE75B8129350226ED1CFE30019F12AD8D
:1007D000F19E121CFE39BDE75B812D260D30018D87
:1007E000092506405082001CFC39BDE75BBDE77E51
:1007F000242F81241A01266030016FE26FE2A600E7
:10080000BDE762254F300134103402EC6385F026D9
:100810004A5849584958495849EBE0ED623510208B
:10082000DD300134026FE2A600BDE77E25263001EF
:1008300034103402EC63584929215849291DE363D7
:10084000291958492915EB608900290FED63326198
:10085000351020D335061CFE1CFD39AE6132651AF9
:10086000033910DF14DC14830030930E39BDE9FD29
:1008700034063410E672351032624F39BDE9FD346A
:1008800006BDE75B813D27037EE6563001BDE943A7
:10089000BDEA313410E772351032627EE6FCBDE706
:1008A0005B9F128EE8AEBDE7212502340639555311
:1008B0005204E7A45045454B04E86D4D454D04E80E
:1008C00062049E0A9C0C26031A033910A300260317
:1008D0001CFC3924051A011CFD3934028604300140
:1008E0003001A10026FA3502300120D88D5534069A
:1008F0005FBDE75B813D2723813C261030015CBD55
:10090000E75B813E26113001CB042013813E265F38
:100910003001CB04BDE75B813D26043001CB0234BE
:10092000048D203410A3631FA8441F894848340451
:10093000ABE0840626014C5FA4622701534F3510BB
:100940003263396FE26FE2BDE75B812D2717812BA0
:10095000260230018D1CE360ED60BDE75B812B2733
:10096000F1812D260A30018D094050820020E735A3
:100970000639BDE9E53406BDE75B812A2748812FAA
:10098000270335063930018D5C341030623406A8F7
:1009900000BDEA243060BDEA243402861134024FDF
:1009A0005FA3622406E3621CFE20021A01696769E4
:1009B0006659496A6026EAA66132644D2A043062AB
:1009C0008D66351020B130018D1B3404E6623DA6E2
:1009D00061E761E6603DA662E76235043DAB60AB6E
:1009E00061ED602092BDE78B250934101F01EC00FA
:1009F000351039BDE7EA24FABDE89E24F58D11349F
:100A000002BDE75B8129350226033001397EE656B7
:100A1000BDE86224037EE64EBDE75B812826EE300A
:100A2000017EE9436D002A086000600124026A002B
:100A3000393402BDE75B810427037EE65630013579
:100A40000239BDE78B24037EE6563406BDE75B81A1
:100A50003D27037EE6563001BDE9438DD49F123514
:100A600010ED009E127EE6FCBDE8EC5D27037EE7FC
:100A70000D7EE6F3BDE9438DB8BDE8C2250F7EE7E4
:100A800009BDE9438DAB9F12BDE8C224037EE65F3A
:100A9000BDE86224037EE64EDC123406DC16340622
:100AA000BDE7093506DD1635107EE6FCBDE75B8146
:100AB0002C2736813B273D810427258122260630BD
:100AC000018D422009BDE94334108D473510BDE743
:100AD0005B812C2714813B271B810427037EE6566C
:100AE0003410BDE63F35102014C6078620BDECAAA1
:100AF000D51C26F73001BDE75B810426B230017EAC
:100B0000E6FCBDECAAA680810426037EE65681227F
:100B100026F0394D2A0D405082003402862DBDEC5E
:100B2000AA35028EEB52300210A30024058CEB5C38
:100B300026F40F1A10A3002506A3000C1A20F53482
:100B40000286309B1ABDECAA35028CEB5C27043080
:100B50000220DF39271003E80064000A00018EEB51
:100B60005620CFBDE78B253C34069F12863FBDEC57
:100B7000AABDE690BDE75B810427F1BDE7D6240B53
:100B80008EEBB8BDE638BDE63F20E19F183510ED8D
:100B9000009E12BDE75B812C27037EE6F93001BD84
:100BA000E78B24037EE656340634109E18BDE75BBF
:100BB000812C26C0300120BC52452D454E54455253
:100BC000049E1086346F804A26FB9E0A7EE702BD93
:100BD000E7EA24084F5FDD12867F2017DD12BDE7AC
:100BE0005B812C27049612200A3001BDE7EA24031A
:100BF0007EE656BDEA313406DC129F12BDE8C29C87
:100C00000C2728350610A30025283406EC81341063
:100C1000BDEB5E35108620BDECAABDE63830013450
:100C200010BDE63F3510BDEC9C20D432628603BD7A
:100C3000ECAA9E127EE6FC4C455404EA4249460466
:100C4000EA68474F544F04EA74474F53554204EA49
:100C50008152455455524E04EA31504F4B4504E8F9
:100C60007C5052494E5404EAAC494E50555404EB62
:100C70006352454D04E6F353544F5004ECE6454EA1
:100C80004404ECE652554E04EBC14C49535404EB7A
:100C9000CF4E455704E51F3F04EAAC048D2A2709CF
:100CA0008D0D810326037EE667390C1C7EECB98D21
:100CB0001727FCB683FF847F393402B683FE850292
:100CC00027F93502B783FF393402B683FE85202722
:100CD00005B683FF20F485013502398603B783FE0C
:060CE0008615B783FE3902
:101FF000E012E012E012E012E012E012E012E01251
:00000001FF